:060000000A128A11122809
:10000800FE00030E83120313A3000408A4000A08C9
:10001800A5007F08A6000A128A15A0280A168A11C8
:10002800D12E0730831681008C013E3085000330C5
:10003800860080308700FF3088000730890006304E
:100048009F00831288018701860185019010901214
:10005800101210100C10831608300C148312C000F4
:100068009D30BF000B30BE00BE0B3828BF0B3828B0
:10007800C00B38283F280A128A1193230A128A11C2
:10008800DB30B1009230B20000300A128A11B0237E
:100098000A128A11D330B1009230B20001300A122C
:1000A8008A11B0230A128A11CB30B1009230B20003
:1000B80002300A128A11B0230A128A11E330B10001
:1000C8009230B20003300A128A11B0230A128A1140
:1000D8008B30B1009230B20004300A128A11B0237A
:1000E8000A128A119330B1009230B20005300A1218
:1000F8008A11B0230A128A119B30B1009230B200E3
:1001080006300A128A11B0230A128A11A330B100EC
:100118009230B20007300A128A11B0230A128A11EB
:100128001230B4009130B5000A128A1108240A125C
:100138008A1100300A128A11E6240A128A11043040
:100148000A128A11B0240A128A1105300A128A1179
:10015800B0240A128A1101300A128A11E6240A12FE
:100168008A1106300A128A11B0240A128A1107303D
:100178000A128A11B0240A128A1103300A128A114B
:100188000E230A128A111030C0003930BF001B300C
:10019800BE00BE0BCD28BF0BCD28C00BCD28D42860
:1001A8000A128A11DD230A128A11AB30B10092308B
:1001B800B20004300A128A11B0230A128A11B3302D
:1001C800B1009230B20005300A128A11B0230A1227
:1001D8008A11BB30B1009230B20006300A128A117F
:1001E800B0230A128A11C330B1009230B20007302E
:1001F8000A128A11B0230A128A1109193129B33057
:10020800B4009030B5000A128A1108240A128A1123
:100218001F30C0007130BF003B30BE00BE0B12293A
:10022800BF0B1229C00B12296400F3308312031389
:10023800B4009030B5000A128A1108240A128A11F3
:100248001F30C0007130BF003B30BE00BE0B2A29F2
:10025800BF0B2A29C00B2A2964003C3083120313E0
:10026800B4009230B5000A128A1108240A128A11C1
:1002780014308711B4000230B5010A128A1104261D
:100288000A128A11C330BF00CD30BE00BE0B4A2906
:10029800BF0B4A29143083120313B4000230B5018E
:1002A8000A128A1104260A128A11C330BF00CD30FF
:1002B800BE00BE0B5D29BF0B5D2931300A128A11C1
:1002C800B0240A128A11F43083120313B4000130E7
:1002D800B50002300A128A1104260A128A11323035
:1002E8000A128A11B0240A128A1183120313F430F5
:1002F8008715B4000130B50002300A128A110426AD
:100308000A128A110830C0009D30BF000B30BE00B1
:10031800BE0B8C29BF0B8C29C00B8C299329333039
:100328000A128A11B0240A128A118312031387143D
:100338000A128A11C4260A128A1183120313C101F0
:10034800C201891CB92901300A128A11DF260A1252
:100358008A1183120313C10A0319C20A0130420227
:10036800F43003194102031CA5294203F430031990
:100378004106031DC4290A128A11F2220A128A119F
:1003880034300A128A11B0240A128A118312031314
:1003980032308710B4000130B5010A128A110426E0
:1003A8000A128A118918DD290A128A11F2220A1200
:1003B8008A1135300A128A11B0240A128A115E3065
:1003C80083120313B4000130B5000A128A110426FF
:1003D8000A128A110A128A110C230A128A11EB30A6
:1003E800B4009230B5000A128A1108240A128A1140
:1003F80003300A128A110E230A128A118B108B17E6
:100408008B1F082A0B16092A0B1283120313CC011F
:10041800CC0A09183B2A4503031D3B2A0830C000B3
:100428009D30BF000B30BE00BE0B182ABF0B182A28
:10043800C00B182A1F2A8312031309183B2A450BDD
:100448003B2A7130B4009030B5000A128A11082492
:100458000A128A11460803193A2A4608C8070130C1
:10046800C6010A128A110E230A128A11C701450B06
:10047800602A4608031D091C602A0518482A0A1222
:100488008A11C4260A128A11831203134D08903E5A
:100498008400831700080A128A1152250A128A1149
:1004A8005F30831203134D0203185C2ACD0A5D2ABC
:1004B800CD014608031DC603091C6B2A450B6B2A90
:1004C800470B6B2A480803196B2AC60AC8034B0B4B
:1004D800D92A0808031D871FD92A091CD92AC1014E
:1004E800C201892A003042020A3003194102031866
:1004F8008B2AD630BE00802A812ABE0B7F2A640050
:1005080083120313C10A0319C20A871B762A871BA1
:10051800D92A07160518952A0A128A11C4260A121A
:100528008A11831203134E0BB12A1F304F0203188E
:10053800B12A4F080F3A031DA72A01300A128A115F
:10054800E6240A128A1108080A128A11B0240A122B
:100558008A1183120313CF0ABC2A0A128A11A12313
:100568000A128A1108080A128A11B0240A128A117A
:100578008312031308080A128A1152250A128A11D3
:10058800831203130918D12ADA30B4009130B50068
:100598000A128A1108240A128A11D6300712BE00DC
:1005A800D52AD62ABE0BD42A640083120313C7089F
:1005B800031946080319EC2A470BE72AC808031948
:1005C80046080319EC2A4B0B0D2A8808031D0D2A2F
:1005D8000A128A110C230A128A110D2A0510883072
:1005E800B4009130B50008240A128A1101300E2394
:1005F8000A128A110830BD009D30BC000B30BB00C8
:10060800BB0B042BBC0B042BBD0B042B0B2BFA2AA6
:10061800051008004F25B0008A2BB101B201B301C3
:1006280031308716AE00AE0B172B1A2B4F25313001
:100638008712AE00AE0B1E2B212B4F25B20A0319D1
:10064800B30A013033022C3003193202031C142B75
:100658007530AF00E130AE00AE0B302BAF0B302B56
:100668004F250330B10A310203180800122BB201DA
:10067800B30127308716AE00AE0B402B432B4F2516
:1006880027308712AE00AE0B472B4A2B4F25B20AF4
:100698000319B30A02303302583003193202031C1B
:1006A8003D2BB201B3011D308716AE00AE0B5A2B9D
:1006B8005D2B4F251D308712AE00AE0B612B642BCE
:1006C8004F25B20A0319B30A04303302B0300319B4
:1006D8003202031C572BB201B30113308716AE0048
:1006E800AE0B742B772B4F2513308712AE00AE0B51
:1006F8007B2B7E2B4F25B20A0319B30A0530330230
:10070800DC300319320203180800712B3008013A53
:100718000319112B023A03193B2B922B08004F2582
:1007280002300611B0240A128A112830B0240A12A5
:100738008A114F250030B101222DDD230A128A11BA
:100748000030E6240A128A110030B101B10A2225CC
:10075800CE01CE0ACF010800B4000611B300031081
:10076800B30D0310B30D0310330D403EB0240A122D
:100778008A114F250615B401340831078400320860
:100788000318320AFF000A168A1100200A128A1179
:10079800B0240A128A114F250830B40A3402031C07
:1007A800C02B80300611B0240A128A114F25061575
:1007B80008004F2580300611B0240A128A114F25EF
:1007C8000615B1012030B0240A128A1149250A12EF
:1007D8008A11031CE62BC0300611B0240A128A11B4
:1007E8004F250615B1012030B0240A128A11492577
:1007F8000A128A11031CF72B80300611B0240A1242
:100808008A114F25061508003508AF003408AE00D8
:10081800FA240A128A112E08B8008030B901CC01D6
:10082800CE010611B0240A128A110C30B0240A1223
:100838008A114F25103006153802BA010318362CD4
:1008480038083A0203185D2C3A083B250A168A1123
:1008580000200A128A11B0240A128A114F25B90AF7
:10086800BA0A242C3A083B250A168A1100200A12D3
:100878008A11B0240A128A114F251030B90ABA0A0F
:100888003A02031C362C0130E6240A128A11380871
:100898003A0203185D2C3A083B250A168A110020F3
:1008A8000A128A11B0240A128A114F25B90ABA0A03
:1008B8004B2C113039020318802CBA01B7013908C2
:1008C800103C30250A128A110318712C2030B024EC
:1008D8000A128A114F25BA0A622C0130E6240A123C
:1008E8008A11BA012030B0240A128A114F2510301B
:1008F800BA0A3A02031C762C11303902031C942CD4
:10090800BA01B7013908203C30250A128A110318A8
:10091800942C2030B0240A128A114F25BA0A852C4B
:1009280011304F2539020318A12C06113908803ED1
:10093800B0240A128A114F25061511303902031CFA
:10094800AD2C06113908B03EB0240A128A114F2581
:100958000615CC01CC0A08004F25AF00B000F030D6
:10096800B00542250A128A1164004F25D130861538
:10097800AE00BE2CAE0BBD2CC12CC22C4F25D130E5
:100988008611AE00C72CAE0BC62CCA2CCB2C4F251B
:100998002F0EF039B00042250A128A1164004F2543
:1009A800D1308615AE00D82CAE0BD72CDB2CDC2C26
:1009B8004F25D1308611AE00E12CAE0BE02CE42C93
:1009C800E52C08004F25B1000611B108031DF02CD5
:1009D8008030B0240A128A114F25310BF72CC03011
:1009E800B0240A128A114F25061508002F08B300F3
:1009F8002E08B2003308B1003208B000B20A031959
:100A0800B30A3108FF00300884000A168A11002052
:100A18000A128A110038031DFE2C2E083202B0007B
:100A28002F08031C2F0A3302B1003008FF3EAE0026
:100A380031080318013EFF3EAF000800B30006115D
:100A4800B2000310B20D310832070C3EB0240A126E
:100A58008A114F2506150800B600031CB70337088E
:100A6800803A803C031D080036083A020800340723
:100A7800840035080318350AFF0008000F30060502
:100A8800AE0030082E0786000800831203131030CA
:100A9800B10A31020800831203130800BC00203A8F
:100AA800031D862D0E308714B4000130B5010426CD
:100AB8000A128A11D00A6D270A128A11AB260A1265
:100AC8008A112F08803AFF0081307F02031D6E2DA6
:100AD80091302E02031C0800882782270A128A11E7
:100AE80004260A128A1187106D270A128A11AB266A
:100AF8000A128A112F08B5002E08B4000130042606
:100B0800D00108003C08033A0319712DAE013C08D6
:100B180025270A128A11BD003D1C952D95260A121B
:100B28008A11882719308715B4000230B5010426C8
:100B38000A128A11BD1CA32D95260A128A11742740
:100B48000A128A1104260A128A113D1DAE2D952615
:100B58000A128A11882706308714B4000130B501BB
:100B680004260A128A11BD1EBC2D95260A128A1166
:100B7800882719308711B4000230B50104260A12FB
:100B88008A113D1ECA2D95260A128A1174270A1247
:100B98008A1104260A128A11BD1DD52D95260A121E
:100BA8008A1108308827B4000130B50104260A12DA
:100BB8008A1104308715B4000230B50104260A12E0
:100BC8008A11D00A6D270A128A11AB260A128A11D5
:100BD8002F08803AFF0081307F02031DF52D9130E8
:100BE8002E02031C0800882782270A128A1104266D
:100BF8000A128A118710C4260A128A118827782DAA
:100C0800B800B901B90ABA01BB01892E3508340404
:100C1800031908000030DF260A128A1164270A1215
:100C28008A110A2E00303502653003193402031C7C
:100C3800722E0310B40DB50D35083B06031D262E84
:100C480034083A060319080004300714B600B60B36
:100C58002B2E2E2E882707104F2E0A30B700BC30B7
:100C6800B600B60B352EB70B352E64005A2E04305D
:100C7800B700E430B600B60B3F2EB70B3F2E64002A
:100C88005A2EE030B600482E6400B60B472E4C2E84
:100C98004D2E64005A2E3908013A0319312E033AB1
:100CA80003193B2E013A0319452E5A2E8827BA0AF2
:100CB8000319BB0A642E0230622E0330B900202EBD
:100CC8003B08003A0319692E202E3A080A3A0319FC
:100CD8005F2E1E3A0319612E202E202E350834046B
:100CE800031908000130DF260A128A1164270A1244
:100CF8008A11722E350834040319080052270A1283
:100D08008A1164270A128A117E2E3808003A0319BC
:100D18000A2E013A0319162E033A03197E2E942E31
:100D280008003B300717AF006F30AE00AE0B9A2EAD
:100D3800AF0B9A2E9F2E882714300713AF007930F7
:100D4800AE00AE0BA52EAF0BA52EAA2E0800B20141
:100D5800B3012E1CB52E3008B2070318B30A3108A8
:100D6800B3070310B00DB10D0310AF0CAE0C2F0874
:100D78002E04031DAD2E3308AF003208AE00080064
:100D880002300514B3008630B2009930B100B10BBF
:100D9800CB2EB20BCB2EB30BCB2E0030DF260A1294
:100DA8008A110030DF260A128A110030DF260A1263
:100DB8008A110030DF2E8827B00004300714AE00F7
:100DC800AE0BE42EE72E88270710B008031DF52E7A
:100DD8000530AF00DD30AE00AE0BF02EAF0BF02EBD
:100DE800F52E88273003031D022F1430AF00793009
:100DF800AE00AE0BFD2EAF0BFD2E022F8827043060
:100E08000714AE00AE0B062F092F88270710B0086D
:100E1800031D172F0530AF00DD30AE00AE0B122FCB
:100E2800AF0B122F172F88273003031D080014302B
:100E3800AF007930AE00AE0B1F2FAF0B1F2F242F42
:100E48000800B000B0080319AE08031900343008D0
:100E5800031D2E08031D0034300803193D2F5F3091
:100E680030020318003430087B270A168A11002044
:100E78000800AF012F087B270A168A1100200A12E2
:100E88008A112E06031D4A2F2F0808005F30AF0A6B
:100E98002F02031C3E2F2E08803E08000430071541
:100EA800AE00AE0B552F582F882705300711AF001D
:100EB8007930AE00AE0B5E2FAF0B5E2F632F0800AC
:100EC800013083120313B4020030031CB503B502CA
:100ED80008005008AE000E30AF01B000B1010800A4
:100EE800193083120313B4000230B5010800123E12
:100EF800840090300318013EFF0008007830871501
:100F0800B4000230B5010800831203130800023050
:100F18000514F5008630F4009930F300F30B922F96
:100F2800F40B922FF50B922F0030A7270A128A1183
:100F38000030A7270A128A110030A7270A128A113F
:100F48000030A7270800F2008312031304300714A7
:100F5800F000F00BAD2FB02F831203130710F20827
:100F6800031DBF2F0530F100DD30F000F00BBA2F64
:100F7800F10BBA2FBF2F7203031DCB2F1430F100D2
:100F88007930F000F00BC62FF10BC62FCB2F831250
:100F9800031304300714F000F00BD02FD32F831263
:100FA80003130710F208031DE22F0530F100DD30AE
:100FB800F000F00BDD2FF10BDD2FE22F7203031D84
:100FC80008001430F1007930F000F00BE92FF10B34
:100FD800E92FEE2F080064008001840A0406031933
:060FE80000340406F02FA6
:10102000E8278030061101260A128A15E8270615DE
:10103000F3011030730203182328203001260A120E
:101040008A15F30A1928E827C030061101260A126A
:101050008A15E8270615F3011030730203183628A5
:10106000203001260A128A15F30A2C28E82780303E
:10107000061101260A128A15E827061508008B308A
:10108000F3009230F4000430DD260A128A15933002
:10109000F3009230F4000530DD260A128A159B30E9
:1010A000F3009230F4000630DD260A128A15A330D0
:1010B000F3009230F4000730DD260A128A15FB0196
:1010C00010200A128A15FA017B087A0203186E288A
:1010D000203001260A128A15FA0A642804300126F3
:1010E0000A128A15053001260A128A150130A02736
:1010F0000A128A15FA017B087A0203188528203023
:1011000001260A128A15FA0A7B28063001260A12DD
:101110008A15073001260A128A150430F900CF30EB
:10112000F8000330F700F70B9328F80B9328F90B1E
:1011300093289A28FB0A7B080F3A03195F28602836
:10114000AD01AB010C1CE8286E30F6009230F700C0
:1011500035260A128A1510108E018F010C10CA0153
:10116000F52D1014C901CA0A510BF52D8716F52D5E
:10117000AB01AB0AAB08031DBF280230AB00AB08C4
:10118000031DC4280430AB00AB08031DC928083078
:10119000AB00AB08031DCE281030AB00AB08031D1D
:1011A000D3282030AB00AB08031DD8284030AB005B
:1011B000AB08031DDD288030AB002B08F0000030A9
:1011C00086180130B6270A128A15C907CA0AF52DF2
:1011D0004A08003A0319B128013A0319B828033A1A
:1011E0000319BA28013A0319BF28073A0319C4287A
:1011F000013A0319C928033A0319CE28013A031901
:10120000D3280F3A0319D828013A0319E6280829E8
:1012100010108E018F01CA014C0BF52D4908E03AE0
:10122000031D1529C401C40AF52D4908F03A031D10
:101230001C29C301C30AF52DC308031D7729440BDC
:1012400077294908753A031969294908723A031937
:10125000692949086B3A031969294908743A03193D
:10126000692977298711EB270A128A1577298715AB
:101270003329023087140514A2008630A10099306A
:10128000A000A00B4129A10B4129A20B412901304B
:101290000A128A11A7270A128A15B3270A128A1579
:1012A0007729023087100514A2008630A1009930FA
:1012B000A000A00B5929A10B5929A20B59290130D3
:1012C0000A128A11A7270A128A15B3270A128A1549
:1012D000772949086B3A03193929193A031937292B
:1012E000063A03195129013A031932297729831241
:1012F0000313C308031D7E29C401F52D8712C408FA
:101300000319A52BFF2C4130E1294230E12943305C
:10131000E1294430E1294530E1294630E1294730CF
:10132000E1294830E1294930E1294A30E1294B30AF
:10133000E1294C30E1294D30E1294E30E1294F308F
:10134000E1295030E1295130E1295230E12953306F
:10135000E1295430E1295530E1295630E12957304F
:10136000E1295830E1295930E1295A30E129043086
:10137000E1290530E1290630E1290730E129023071
:10138000E129AD01AD0A762C2030E1292C30E1298C
:101390002E30E1295F30E1293F30E1290830E12991
:1013A0003B30E1292130E1292830E1292930E129A8
:1013B0002230E1292A30E1295E30E1292330E12978
:1013C0000330AD00762C48080319762CC8034E0B69
:1013D000232A10304F020318052A06114F08803EB9
:1013E00001260A128A1583120313203006150126DE
:1013F0000A128A158312031306114F08803E012634
:101400000A128A1583120313061510304F02031CAB
:10141000212A06114F08B03E01260A128A158312AE
:1014200003132030061501260A128A1583120313AE
:1014300006114F08B03E01260A128A1583120313C3
:101440000615CF03762C0A168A1152270A128A151E
:10145000762C510B342A6B30F6009130F70035268C
:101460000A128A15D101762CC030F6009130F700AF
:1014700035260A128A15D101D10A762C470B492A42
:10148000D330F6009030F70035260A128A15C701CE
:10149000762C091C552A4E30F6009130F70035267F
:1014A0000A128A15C701C70A762CDA30F600913085
:1014B000F700352601300A168A1177270A128A1595
:1014C000762C3F200A128A15762C10200A128A15D3
:1014D0000030881B0130303E01260A128A15003088
:1014E00083120313081B0130303E01260A128A15AD
:1014F000003083120313881A0130303E01260A128D
:101500008A15003083120313081A0130303E012679
:101510000A128A1500308312031388190130303EF5
:1015200001260A128A1500308312031308190130AC
:10153000303E01260A128A150030831203138818E0
:101540000130303E01260A128A150030831203133F
:1015500008180130303E01260A128A152030012673
:101560000A128A15203001260A128A152030012617
:101570000A128A15533001260A128A1554300126A0
:101580000A128A15423001260A128A150030831287
:101590000313871B0130303E01260A128A150130E1
:1015A000A0270A128A15503001260A128A155030D7
:1015B00001260A128A15003083120313091801301C
:1015C000303E01260A128A15463001260A128A1573
:1015D000433001260A128A1500308312031389183A
:1015E0000130303E01260A128A15503001260A12B7
:1015F0008A154C3001260A128A1500308312031313
:1016000009190130303E01260A128A15762C0A1675
:101610008A11E7260A128A15762CD1308615A00089
:10162000112BA00B102B142B152B83120313D1306D
:101630008611A0001B2BA00B1A2B1E2B1F2B762C08
:10164000CB080319871F302B5E30F6009230F7006D
:1016500035260A128A15CB01CB0AC801C601472AD2
:101660007D30F6009230F70035260A128A15CB013C
:10167000762C0A168A1141270A128A15DB30F300EC
:101680009230F4000030DD260A128A15D330F300C0
:101690009230F4000130DD260A128A15CB30F300B7
:1016A0009230F4000230DD260A128A15E330F3008E
:1016B0009230F4000330DD260A128A15AB30F300B5
:1016C0009230F4000430DD260A128A15B330F3009C
:1016D0009230F4000530DD260A128A15BB30F30083
:1016E0009230F4000630DD260A128A15C330F3006A
:1016F0009230F4000730DD260A128A15762C10206D
:101700000A128A15AC012C0801260A128A15143017
:1017100083120313A1007930A000A00B8D2BA10B25
:101720008D2B922B831203130830AC0A2C02031862
:10173000762C832BA530CD01C601C801F60091306F
:10174000F70035260A128A15762C4908013A031942
:10175000652A023A0319392B073A0319612A013A1B
:101760000319292A033A03193E2A013A0319202BA7
:101770000E3A0319072B033A0319762C013A031981
:101780007F2B063A0319DE29033A0319DA291B3A9B
:101790000319A329033A031983290C3A0319B5291C
:1017A000013A0319A729073A03198329013A0319B2
:1017B000AF29033A031985293F3A03198729033AC8
:1017C0000319B129013A03198929073A03198B2909
:1017D000013A03198929033A031987290F3A031992
:1017E000C429033A0319AD29013A03198D29073A8F
:1017F0000319A929013A0319A529033A03198B29C9
:101800001F3A03199D29033A03198529013A03193F
:101810009129073A03198F29013A0319B329033A89
:1018200003198D290C3A03199B29013A03199529AB
:10183000073A0319AB29013A03198F29033A03190F
:1018400091297F3A0319C629033A03199729013AC6
:1018500003199329073A03199F29013A0319952976
:10186000033A031993290F3A0319C829033A0319B4
:10187000CA29013A03199929073A0319CE29013ACD
:101880000319A129033A0319CC291C3A0319D029B9
:10189000063A0319D429013A0319D2290D3A03193A
:1018A000DC29023A0319E029013A0319D629063A3C
:1018B0000319D8293B3A0319E3290F3A0319B72929
:1018C000023A0319BD29193A0319B929013A031932
:1018D000BF29073A0319C129023A03199A2B0E3A74
:1018E00003190D2B023A0319BB29762C831203131B
:1018F0002D080319FF2CCB08031DFF2C48084607B1
:10190000A000A101A10D2108803AFF0080307F02D4
:10191000031D8C2C603020020318F42C8312031357
:1019200046084D07A00048082007AC0060302C0294
:10193000031C9C2CA030AC072C08903E84002D0882
:1019400083178000C80A4E0BD02C1F304F0203189B
:10195000D02C4F080F3A031DB12C0130A0270A12DA
:101960008A152C08903E84007B30831700022C08D7
:101970000318C62C903E8400613000022C08031C22
:10198000C62C903E84000008E03EC92C903E8400A6
:10199000000801260A128A1583120313CF0AFF2CAE
:1019A0000A168A1152270A128A152C08903E8400C2
:1019B0007B30831700022C080318ED2C903E840026
:1019C000613000022C08031CED2C903E84000008BE
:1019D000E03E01260A128A15FF2C903E8400000882
:1019E00001260A128A15FF2C9230F6009030F7007B
:1019F000352601300A168A1177270A128A158312B2
:101A00000313440BF12DDD2D0D30F6009230F7005D
:101A100035260A128A158715A701A801A901AA016E
:101A20000A30F6000230F7010B270A128A158312DA
:101A30000313091C322DA70A0319A80A0319A90ABE
:101A40000319AA0A00302A02031D302D0030290292
:101A5000031D302D01302802031D302D2C302702AC
:101A6000031C102D2030F6000330F70002300B2746
:101A70000A128A1583120313C50150080319662D33
:101A800078308715F6000230F7010B278312031315
:101A900087100A128A118B270A128A1583120313E0
:101AA0005008F0000E30F101F200F3010A168A111D
:101AB000FE260A128A157108F7007008F600013038
:101AC0000B270A128A1583120313D001C701EB30CA
:101AD000F6009230F70035260A128A15F12D4808D3
:101AE00003198B2D091C7F2D4808C6073030C8010B
:101AF000F6009130F70035260A128A15F12DDA30FA
:101B0000F6009130F700352601300A168A11772742
:101B10000A128A15F12D2530F6009230F70035268D
:101B20000A128A15F12D091CAA2DF430F600913005
:101B3000F70035260A128A1520308715F600033083
:101B4000F70002300B270A128A1583120313C5010E
:101B5000C50A672DDA30F6009130F70035260A12F3
:101B60008A15F12D4E30C801F6009230F700352667
:101B70000A128A15F12DC608031DF12D783087153C
:101B8000F6000230F7010B270A128A15F12DC6085C
:101B9000031DF12D78308711F6000230F7010B2775
:101BA0000A128A158312031304308715F6000230D7
:101BB000F7010B270A128A15F12D4908693A031912
:101BC000042D053A03196F2D1C3A0319932D013A80
:101BD0000319B22D0B3A0319BB2D073A0319C72D70
:101BE000F12D83120313C401C3018B102608FF00DB
:101BF00025088A0024088400230E8300FE0E7E0E32
:101C00000900F100F200F030F205D8270A128A1517
:101C10006400E827D1308615F0000E2EF00B0D2E53
:101C2000112E122EE827D1308611F000172EF00B5E
:101C3000162E1A2E1B2E710EF039F200D8270A121A
:101C40008A156400E827D1308615F000272EF00BA6
:101C5000262E2A2E2B2EE827D1308611F000302E8A
:101C6000F00B2F2E332E342E08007708F100760863
:101C7000F0000A168A1117270A128A157008FA004E
:101C80008030FB01CC01CE01061101260A128A1513
:101C90000C3001260A128A15E827103006157A0240
:101CA000FC010318642E7A087C0203188A2E7C0833
:101CB000C4270A168A1100200A128A1501260A1260
:101CC0008A15FB0AFC0A532E10307C020318752E6D
:101CD0007C08C4270A168A1100200A128A150126D8
:101CE0000A128A15FB0AFC0A642E0130A0270A1288
:101CF0008A157A087C0203188A2E7C08C4270A16E3
:101D00008A1100200A128A1501260A128A15FB0A76
:101D1000FC0A792E11307B020318AC2EFC01F9016C
:101D20007B08103CCD270A128A1503189D2E2030FF
:101D300001260A128A15FC0A8F2E0130A0270A12EA
:101D40008A15FC0110307C020318AC2E20300126CD
:101D50000A128A15FC0AA22E11307B02031CBF2E28
:101D6000FC01F9017B08203CCD270A128A150318D3
:101D7000BF2E203001260A128A15FC0AB12E11301E
:101D80007B020318CC2EE82706117B08803E012633
:101D90000A128A15E827061511307B02031CD92E7A
:101DA000E82706117B08B03E01260A128A15E827AB
:101DB0000615E827CC01CC0A0800F6000611F5004C
:101DC0000310F50D0310F50D0310750D403E0126AF
:101DD0000A128A15E8270615F601760873078400AB
:101DE00074080318740AE827FF000A168A110020F5
:101DF0000A128A1501260A128A150830F60A760296
:101E0000031CED2EE8278030061101260A128A15E0
:101E1000E82706150800FA00FB01FB0AFC01FD019A
:101E2000942F770876040319080000300A128A11EB
:101E3000A7270A128A15E1270A128A15112F0030E6
:101E40007702653003197602031C7B2F0310F60D11
:101E5000F70D77087D06031D2F2F76087C060319E2
:101E60000800E82704300714F800F80B352F382F46
:101E7000E8270710592F0A30F900BC30F800F80B9A
:101E80003F2FF90B3F2F6400642F0430F900E4303A
:101E9000F800F80B492FF90B492F6400642FE0304C
:101EA000F800522F6400F80B512F562F572F640063
:101EB000642F7B08013A03193B2F033A0319452F7E
:101EC000013A03194F2F642FFC0A0319FD0A6D2FE5
:101ED00002306B2F0330FB00292F7D08003A0319D5
:101EE000722F292F7C080A3A0319682F1E3A03190A
:101EF0006A2F292F292F770876040319080001304B
:101F00000A128A11A7270A128A15E1270A128A15CE
:101F10007B2F7708760403190800EB270A128A152D
:101F2000E1270A128A15892F7A08003A0319112F1E
:101F3000013A03191F2F033A0319892F9F2F080015
:101F4000F300E8270611F308031DAA2F80300126AD
:101F50000A128A15730BB02FC03001260A128A1597
:101F6000E82706150800E82705100800F200F1012F
:101F700070087218F1070310F00D0310F20CF2084C
:101F8000031DB82F7108080076078400770803182E
:101F9000770A83120313FF000800F800031CF903FB
:101FA0007908803A803C031D080078087C0208000C
:101FB0000F30831203130605F000720870078600C5
:101FC00008000130F6020030031CF703F702080096
:101FD0008312031308008312031304300715F00063
:101FE000F00BF02FF32F8312031305300711F100CC
:101FF0007930F000F00BFA2FF10BFA2FFF2F0800C9
:10200000FF1B0A2883137F1883170008840A03190B
:10201000FF0A08007F087F398A000408840A031930
:10202000FF0A8200003433343E34003437342E3417
:102030000C342C343B34003400340034003400348D
:1020400000340034003400340034003400340034F0
:1020500000340034003400340034003400340034E0
:10206000003400340034163426343C340034003458
:102070000034003423341C34143400340234243447
:1020800004340034003400340034003400340034AC
:10209000003400340034003400340634003400349A
:1020A0000034223400340134033409341934113437
:1020B0000B341B3413340A341A34053407340D340A
:1020C0001D3415340F341F3417340E341E342534A8
:1020D00027343A342D343D34353400340034003460
:1020E000283450346134703465346C3420345034C6
:1020F000653472346434693464346F342034203489
:10210000203449346E346934633469346F343A347A
:1021100063346F346E34743469346E3475346134BE
:102120007234003442347534663466346534723443
:1021300020346C346C3465346E346F342034203485
:10214000203420344534733470346534723465344B
:10215000203475346E346F34733420347334653402
:1021600067342E3400344C3461342034703461349C
:102170006C3461346E3463346134203465347334C8
:1021800074346134203465346E34203475346E34E4
:102190006134203470346F34733469346334693497
:1021A0006F346E34003449346D34703472346534B5
:1021B000733469346F346E34203464346934723467
:1021C000653463345F34743461342034643465348A
:1021D0007334613463347434693476346134643410
:1021E00061342E34003471347534653420347034E5
:1021F0006F3464347234693461342034633461344C
:1022000075345F3420347334613472342034703464
:1022100072346F3462346C3465346D3461347334C9
:102220002E340034203420342034203420344934F7
:102230006D3470347234653473346F347234613495
:1022400020342034203420342034203420342034EE
:1022500042347234613469346C346C346534003423
:10226000533475346D34613464346F3420346134E4
:1022700020346C346134203463346F346C34613412
:1022800064346534203469346D34703472346534A8
:10229000733469346F346E342E34003449346D3401
:1022A000703472346534733469346F346E3420346E
:1022B000643469347234653463345F347434613443
:1022C0002034613463347434693476346134643472
:1022D00061342E34003453346F346E3469346434D2
:1022E0006F3420346434653420347434653463349A
:1022F0006C34613420346434653473346134633451
:10230000743469347634613464346F342E34003478
:102310004534523452344F345234203453344534DB
:102320004E3453344F345234203444344534203402
:10233000463449344E342034443445342034433414
:102340004134523452344F34003454347234613492
:10235000623461346A346F342034203420342034C1
:1023600020342034203420342034433461346E341B
:10237000633465346C34613464346F342E34003427
:1023800053346F346E34693464346F3420346434BD
:10239000653420347434653463346C3461342034EF
:1023A00061346334743469347634613464346F3442
:1023B0002E3400344E346F34203468346134793430
:1023C000203470346134703465346C342E342034ED
:1023D0002034203444346534743465346E346934C4
:1023E00064346F342E3400345234653463346934C9
:1023F0006234693465346E3464346F34203420348C
:102400002034203420342034503461347034653426
:102410006C342E342E342E340034453478347034F9
:1024200075346C34733461346E3464346F342034F6
:102430002034203420342034203448346F346A343B
:1024400061342E342E342E3400344E346F34203424
:1024500073346534203469346E34743472346F34B8
:10246000643475346A346F342034743465347834A9
:1024700074346F342E34003449346E346934633428
:10248000693461346E3464346F342E342E342E3417
:102490002034203420342034303400344234753435
:1024A0006634663465347234203462346F34723486
:1024B0007234613464346F342E34003420342D345B
:1024C0002D3420344D346F3464346F342034203450
:1024D0005034433420342D342D34003420344534EA
:1024E000723472346F34723420347434653463342B
:1024F0006C34613464346F34003444346534733480
:1025000063346F346E3465346334743461346434EA
:102510006F342E3400341F34103412341534153413
:102520001534123410341F340B3415340B34153475
:102530000B3415340B341A3415341A3415341A3458
:1025400015340F3401340134153419341934153469
:1025500001341E3410340334063400340E34013494
:102560000F3411340F340334063400340E34113474
:102570001F3410340E340334063400340C34043465
:10258000043404340E340334063400340E3411346D
:10259000113411340E340334063400341134113440
:1025A000113413340D3400340A340034113411342E
:1025B000113413340D340D341634003416341934F8
:1025C00011341134113400340134013405340D3424
:1025D0001F340C34043448346534633468346F3445
:0425E0002E34003461
:102DA20043308313840051300A128A11EF270A1626
:102DB2008A11903083178400F0300A128A11EF27AB
:102DC2000130D10083010A128A1115283B300717FE
:102DD200F1006F30F000F00BEC2EF10BEC2EF12E27
:102DE2008312031314300713F1007930F000F00B53
:102DF200F82EF10BF82EFD2E0800F401F501701CDF
:102E0200082F7208F4070318F50A7308F507031070
:102E1200F20DF30D0310F10CF00C71087004031D98
:102E2200002F7508F1007408F00008007108F50021
:102E32007008F4007508F3007408F200F40A03192C
:102E4200F50A730883120313FF00720884000A163E
:102E52008A1100200A168A110038031D1B2F7008E0
:102E62007402F2007108031C710A7502F300720801
:102E7200FF3EF00073080318013EFF3EF100080018
:102E8200023006110A128A1501260A168A11283002
:102E92000A128A1501260A168A110030F3016527E3
:102EA20008000A128A1510200A168A1100300A1226
:102EB2008A15A0270A168A110030F301F30A652742
:102EC200CE01CE0ACF010800F500831203130611CA
:102ED2007508F4000310F40D730874070C3E0A120F
:102EE2008A1501268312031306150800F200F42F37
:102EF200F3010330730203180800F401F5010130F5
:102F020075022C30031974020318992FFD273130F2
:102F12008716F000F00B8B2F8E2FFD273130871292
:102F2200F000F00B922F952FF40A0319F50A802F67
:102F32007530F100E130F000F00B9D2FF10B9D2F69
:102F4200F30A7A2FF401F5010230750258300319A1
:102F520074020318BE2FFD2727308716F000F00BEE
:102F6200B02FB32FFD2727308712F000F00BB72FB9
:102F7200BA2FF40A0319F50AA52FF401F50104305A
:102F82007502B030031974020318D92FFD271D30C2
:102F92008716F000F00BCB2FCE2FFD271D308712A6
:102FA200F000F00BD22FD52FF40A0319F50AC02F27
:102FB200F401F50105307502DC30031974020318BF
:102FC2000800FD2713308716F000F00BE62FE92FDB
:102FD200FD2713308712F000F00BED2FF02FF40ACB
:102FE2000319F50ADB2F7208013A0319792F023A05
:0E2FF2000319A32FFC2F0800831203130800FD
:02400E007AFF37
:00000001FF
